{
  "_format": "hh-sol-artifact-1",
  "contractName": "WavePortal",
  "sourceName": "contracts/WavePortal.sol",
  "abi": [
    {
      "inputs": [],
      "stateMutability": "payable",
      "type": "constructor"
    },
    {
      "anonymous": false,
      "inputs": [
        {
          "indexed": false,
          "internalType": "uint256",
          "name": "id",
          "type": "uint256"
        },
        {
          "indexed": false,
          "internalType": "string",
          "name": "message",
          "type": "string"
        },
        {
          "indexed": true,
          "internalType": "address",
          "name": "from",
          "type": "address"
        },
        {
          "indexed": false,
          "internalType": "uint256",
          "name": "timestamp",
          "type": "uint256"
        },
        {
          "indexed": false,
          "internalType": "bool",
          "name": "isRewarded",
          "type": "bool"
        }
      ],
      "name": "NewWave",
      "type": "event"
    },
    {
      "inputs": [],
      "name": "getAllWaves",
      "outputs": [
        {
          "components": [
            {
              "internalType": "uint256",
              "name": "id",
              "type": "uint256"
            },
            {
              "internalType": "string",
              "name": "message",
              "type": "string"
            },
            {
              "internalType": "address",
              "name": "from",
              "type": "address"
            },
            {
              "internalType": "uint256",
              "name": "timestamp",
              "type": "uint256"
            },
            {
              "internalType": "bool",
              "name": "isRewarded",
              "type": "bool"
            }
          ],
          "internalType": "struct WavePortal.Wave[]",
          "name": "",
          "type": "tuple[]"
        }
      ],
      "stateMutability": "view",
      "type": "function"
    },
    {
      "inputs": [
        {
          "internalType": "address",
          "name": "recipient",
          "type": "address"
        }
      ],
      "name": "getAllWavesOfAddress",
      "outputs": [
        {
          "components": [
            {
              "internalType": "uint256",
              "name": "id",
              "type": "uint256"
            },
            {
              "internalType": "string",
              "name": "message",
              "type": "string"
            },
            {
              "internalType": "address",
              "name": "from",
              "type": "address"
            },
            {
              "internalType": "uint256",
              "name": "timestamp",
              "type": "uint256"
            },
            {
              "internalType": "bool",
              "name": "isRewarded",
              "type": "bool"
            }
          ],
          "internalType": "struct WavePortal.Wave[]",
          "name": "",
          "type": "tuple[]"
        }
      ],
      "stateMutability": "view",
      "type": "function"
    },
    {
      "inputs": [],
      "name": "getLastWave",
      "outputs": [
        {
          "components": [
            {
              "internalType": "uint256",
              "name": "id",
              "type": "uint256"
            },
            {
              "internalType": "string",
              "name": "message",
              "type": "string"
            },
            {
              "internalType": "address",
              "name": "from",
              "type": "address"
            },
            {
              "internalType": "uint256",
              "name": "timestamp",
              "type": "uint256"
            },
            {
              "internalType": "bool",
              "name": "isRewarded",
              "type": "bool"
            }
          ],
          "internalType": "struct WavePortal.Wave",
          "name": "",
          "type": "tuple"
        }
      ],
      "stateMutability": "view",
      "type": "function"
    },
    {
      "inputs": [],
      "name": "getTotalWaves",
      "outputs": [
        {
          "internalType": "uint256",
          "name": "",
          "type": "uint256"
        }
      ],
      "stateMutability": "view",
      "type": "function"
    },
    {
      "inputs": [
        {
          "internalType": "address",
          "name": "",
          "type": "address"
        }
      ],
      "name": "lastWavedAt",
      "outputs": [
        {
          "internalType": "uint256",
          "name": "",
          "type": "uint256"
        }
      ],
      "stateMutability": "view",
      "type": "function"
    },
    {
      "inputs": [
        {
          "internalType": "string",
          "name": "_message",
          "type": "string"
        }
      ],
      "name": "wave",
      "outputs": [],
      "stateMutability": "nonpayable",
      "type": "function"
    },
    {
      "inputs": [
        {
          "internalType": "uint256",
          "name": "",
          "type": "uint256"
        }
      ],
      "name": "waveList",
      "outputs": [
        {
          "internalType": "uint256",
          "name": "id",
          "type": "uint256"
        },
        {
          "internalType": "string",
          "name": "message",
          "type": "string"
        },
        {
          "internalType": "address",
          "name": "from",
          "type": "address"
        },
        {
          "internalType": "uint256",
          "name": "timestamp",
          "type": "uint256"
        },
        {
          "internalType": "bool",
          "name": "isRewarded",
          "type": "bool"
        }
      ],
      "stateMutability": "view",
      "type": "function"
    }
  ],
  "bytecode": "0x6080604052611802806100136000396000f3fe608060405234801561001057600080fd5b506004361061007d5760003560e01c80639a2cdc081161005b5780639a2cdc08146100f0578063a42a46631461010e578063bd43a9081461013e578063e1a377f01461015c5761007d565b8063449d46c014610082578063641868611461009e5780638b9c3ecd146100bc575b600080fd5b61009c60048036038101906100979190610e55565b61018c565b005b6100a6610520565b6040516100b39190611266565b60405180910390f35b6100d660048036038101906100d19190610e96565b6106ef565b6040516100e79594939291906112a3565b60405180910390f35b6100f86107ea565b6040516101059190611288565b60405180910390f35b61012860048036038101906101239190610e2c565b610800565b6040516101359190611288565b60405180910390f35b610146610818565b60405161015391906111c4565b60405180910390f35b61017660048036038101906101719190610e2c565b61098e565b60405161018391906111c4565b60405180910390f35b426104b0600360003373ffffffffffffffffffffffffffffffffffffffff1673ffffffffffffffffffffffffffffffffffffffff168152602001908152602001600020546101da9190611410565b1061021a576040517f08c379a000000000000000000000000000000000000000000000000000000000815260040161021190611206565b60405180910390fd5b42600360003373ffffffffffffffffffffffffffffffffffffffff1673ffffffffffffffffffffffffffffffffffffffff168152602001908152602001600020819055506102686000610b43565b60006102746000610b59565b90506000610280610b67565b905060016040518060a001604052808481526020018581526020013373ffffffffffffffffffffffffffffffffffffffff1681526020014281526020018315158152509080600181540180825580915050600190039060005260206000209060050201600090919091909150600082015181600001556020820151816001019080519060200190610312929190610cb0565b5060408201518160020160006101000a81548173ffffffffffffffffffffffffffffffffffffffff021916908373ffffffffffffffffffffffffffffffffffffffff1602179055506060820151816003015560808201518160040160006101000a81548160ff0219169083151502179055505050600260003373ffffffffffffffffffffffffffffffffffffffff1673ffffffffffffffffffffffffffffffffffffffff1681526020019081526020016000206040518060a001604052808481526020018581526020013373ffffffffffffffffffffffffffffffffffffffff1681526020014281526020018315158152509080600181540180825580915050600190039060005260206000209060050201600090919091909150600082015181600001556020820151816001019080519060200190610453929190610cb0565b5060408201518160020160006101000a81548173ffffffffffffffffffffffffffffffffffffffff021916908373ffffffffffffffffffffffffffffffffffffffff1602179055506060820151816003015560808201518160040160006101000a81548160ff02191690831515021790555050503373ffffffffffffffffffffffffffffffffffffffff167f620b6be2c1dee8ca673b56ce599228d959a0c1a8bd9a13b2b0ea82566db37a198385428560405161051394939291906112fd565b60405180910390a2505050565b610528610d36565b60006001805490501415610571576040517f08c379a0000000000000000000000000000000000000000000000000000000008152600401610568906111e6565b60405180910390fd5b60018080805490506105839190611466565b815481106105ba577f4e487b7100000000000000000000000000000000000000000000000000000000600052603260045260246000fd5b90600052602060002090600502016040518060a0016040529081600082015481526020016001820180546105ed90611524565b80601f016020809104026020016040519081016040528092919081815260200182805461061990611524565b80156106665780601f1061063b57610100808354040283529160200191610666565b820191906000526020600020905b81548152906001019060200180831161064957829003601f168201915b505050505081526020016002820160009054906101000a900473ffffffffffffffffffffffffffffffffffffffff1673ffffffffffffffffffffffffffffffffffffffff1673ffffffffffffffffffffffffffffffffffffffff168152602001600382015481526020016004820160009054906101000a900460ff161515151581525050905090565b600181815481106106ff57600080fd5b906000526020600020906005020160009150905080600001549080600101805461072890611524565b80601f016020809104026020016040519081016040528092919081815260200182805461075490611524565b80156107a15780601f10610776576101008083540402835291602001916107a1565b820191906000526020600020905b81548152906001019060200180831161078457829003601f168201915b5050505050908060020160009054906101000a900473ffffffffffffffffffffffffffffffffffffffff16908060030154908060040160009054906101000a900460ff16905085565b6000806107f76000610b59565b90508091505090565b60036020528060005260406000206000915090505481565b60606001805480602002602001604051908101604052809291908181526020016000905b8282101561098557838290600052602060002090600502016040518060a00160405290816000820154815260200160018201805461087990611524565b80601f01602080910402602001604051908101604052809291908181526020018280546108a590611524565b80156108f25780601f106108c7576101008083540402835291602001916108f2565b820191906000526020600020905b8154815290600101906020018083116108d557829003601f168201915b505050505081526020016002820160009054906101000a900473ffffffffffffffffffffffffffffffffffffffff1673ffffffffffffffffffffffffffffffffffffffff1673ffffffffffffffffffffffffffffffffffffffff168152602001600382015481526020016004820160009054906101000a900460ff1615151515815250508152602001906001019061083c565b50505050905090565b6060600260008373ffffffffffffffffffffffffffffffffffffffff1673ffffffffffffffffffffffffffffffffffffffff168152602001908152602001600020805480602002602001604051908101604052809291908181526020016000905b82821015610b3857838290600052602060002090600502016040518060a001604052908160008201548152602001600182018054610a2c90611524565b80601f0160208091040260200160405190810160405280929190818152602001828054610a5890611524565b8015610aa55780601f10610a7a57610100808354040283529160200191610aa5565b820191906000526020600020905b815481529060010190602001808311610a8857829003601f168201915b505050505081526020016002820160009054906101000a900473ffffffffffffffffffffffffffffffffffffffff1673ffffffffffffffffffffffffffffffffffffffff1673ffffffffffffffffffffffffffffffffffffffff168152602001600382015481526020016004820160009054906101000a900460ff161515151581525050815260200190600101906109ef565b505050509050919050565b6001816000016000828254019250508190555050565b600081600001549050919050565b6000806000905060646004544244610b7f9190611410565b610b899190611410565b610b939190611587565b6004819055506000603290508060045411610ca8576000655af3107a4000905047811115610bf6576040517f08c379a0000000000000000000000000000000000000000000000000000000008152600401610bed90611246565b60405180910390fd5b60003373ffffffffffffffffffffffffffffffffffffffff1682604051610c1c906111af565b60006040518083038185875af1925050503d8060008114610c59576040519150601f19603f3d011682016040523d82523d6000602084013e610c5e565b606091505b5050905080935080610ca5576040517f08c379a0000000000000000000000000000000000000000000000000000000008152600401610c9c90611226565b60405180910390fd5b50505b819250505090565b828054610cbc90611524565b90600052602060002090601f016020900481019282610cde5760008555610d25565b82601f10610cf757805160ff1916838001178555610d25565b82800160010185558215610d25579182015b82811115610d24578251825591602001919060010190610d09565b5b509050610d329190610d7d565b5090565b6040518060a001604052806000815260200160608152602001600073ffffffffffffffffffffffffffffffffffffffff168152602001600081526020016000151581525090565b5b80821115610d96576000816000905550600101610d7e565b5090565b6000610dad610da88461136e565b611349565b905082815260208101848484011115610dc557600080fd5b610dd08482856114e2565b509392505050565b600081359050610de78161179e565b92915050565b600082601f830112610dfe57600080fd5b8135610e0e848260208601610d9a565b91505092915050565b600081359050610e26816117b5565b92915050565b600060208284031215610e3e57600080fd5b6000610e4c84828501610dd8565b91505092915050565b600060208284031215610e6757600080fd5b600082013567ffffffffffffffff811115610e8157600080fd5b610e8d84828501610ded565b91505092915050565b600060208284031215610ea857600080fd5b6000610eb684828501610e17565b91505092915050565b6000610ecb83836110a5565b905092915050565b610edc8161149a565b82525050565b610eeb8161149a565b82525050565b6000610efc826113af565b610f0681856113d2565b935083602082028501610f188561139f565b8060005b85811015610f545784840389528151610f358582610ebf565b9450610f40836113c5565b925060208a01995050600181019050610f1c565b50829750879550505050505092915050565b610f6f816114ac565b82525050565b610f7e816114ac565b82525050565b6000610f8f826113ba565b610f9981856113ee565b9350610fa98185602086016114f1565b610fb281611674565b840191505092915050565b6000610fc8826113ba565b610fd281856113ff565b9350610fe28185602086016114f1565b610feb81611674565b840191505092915050565b60006110036012836113ff565b915061100e82611685565b602082019050919050565b60006110266025836113ff565b9150611031826116ae565b604082019050919050565b60006110496027836113ff565b9150611054826116fd565b604082019050919050565b600061106c6035836113ff565b91506110778261174c565b604082019050919050565b600061108f6000836113e3565b915061109a8261179b565b600082019050919050565b600060a0830160008301516110bd6000860182611191565b50602083015184820360208601526110d58282610f84565b91505060408301516110ea6040860182610ed3565b5060608301516110fd6060860182611191565b5060808301516111106080860182610f66565b508091505092915050565b600060a0830160008301516111336000860182611191565b506020830151848203602086015261114b8282610f84565b91505060408301516111606040860182610ed3565b5060608301516111736060860182611191565b5060808301516111866080860182610f66565b508091505092915050565b61119a816114d8565b82525050565b6111a9816114d8565b82525050565b60006111ba82611082565b9150819050919050565b600060208201905081810360008301526111de8184610ef1565b905092915050565b600060208201905081810360008301526111ff81610ff6565b9050919050565b6000602082019050818103600083015261121f81611019565b9050919050565b6000602082019050818103600083015261123f8161103c565b9050919050565b6000602082019050818103600083015261125f8161105f565b9050919050565b60006020820190508181036000830152611280818461111b565b905092915050565b600060208201905061129d60008301846111a0565b92915050565b600060a0820190506112b860008301886111a0565b81810360208301526112ca8187610fbd565b90506112d96040830186610ee2565b6112e660608301856111a0565b6112f36080830184610f75565b9695505050505050565b600060808201905061131260008301876111a0565b81810360208301526113248186610fbd565b905061133360408301856111a0565b6113406060830184610f75565b95945050505050565b6000611353611364565b905061135f8282611556565b919050565b6000604051905090565b600067ffffffffffffffff82111561138957611388611645565b5b61139282611674565b9050602081019050919050565b6000819050602082019050919050565b600081519050919050565b600081519050919050565b6000602082019050919050565b600082825260208201905092915050565b600081905092915050565b600082825260208201905092915050565b600082825260208201905092915050565b600061141b826114d8565b9150611426836114d8565b9250827fffffffffffffffffffffffffffffffffffffffffffffffffffffffffffffffff0382111561145b5761145a6115b8565b5b828201905092915050565b6000611471826114d8565b915061147c836114d8565b92508282101561148f5761148e6115b8565b5b828203905092915050565b60006114a5826114b8565b9050919050565b60008115159050919050565b600073ffffffffffffffffffffffffffffffffffffffff82169050919050565b6000819050919050565b82818337600083830152505050565b60005b8381101561150f5780820151818401526020810190506114f4565b8381111561151e576000848401525b50505050565b6000600282049050600182168061153c57607f821691505b602082108114156115505761154f611616565b5b50919050565b61155f82611674565b810181811067ffffffffffffffff8211171561157e5761157d611645565b5b80604052505050565b6000611592826114d8565b915061159d836114d8565b9250826115ad576115ac6115e7565b5b828206905092915050565b7f4e487b7100000000000000000000000000000000000000000000000000000000600052601160045260246000fd5b7f4e487b7100000000000000000000000000000000000000000000000000000000600052601260045260246000fd5b7f4e487b7100000000000000000000000000000000000000000000000000000000600052602260045260246000fd5b7f4e487b7100000000000000000000000000000000000000000000000000000000600052604160045260246000fd5b6000601f19601f8301169050919050565b7f546865726520617265206e6f2077617665730000000000000000000000000000600082015250565b7f57616974203230206d696e7574657320746f2073656e6420616e6f746865722060008201527f776176652e000000000000000000000000000000000000000000000000000000602082015250565b7f4661696c656420746f207769746864726177206d6f6e65792066726f6d20636f60008201527f6e74726163742e00000000000000000000000000000000000000000000000000602082015250565b7f547279696e6720746f207769746864726177206d6f7265206d6f6e657920746860008201527f616e207468657920636f6e7472616374206861732e0000000000000000000000602082015250565b50565b6117a78161149a565b81146117b257600080fd5b50565b6117be816114d8565b81146117c957600080fd5b5056fea2646970667358221220eda85df94f8e15967240eb99e90eedb21c1283d1ad1f7e9fdbbe0bbd093ec25564736f6c63430008040033",
  "linkReferences": {},
  "deployedLinkReferences": {}
}