{
  "_format": "hh-sol-artifact-1",
  "contractName": "WavePortal",
  "sourceName": "contracts/WavePortal.sol",
  "abi": [
    {
      "inputs": [],
      "stateMutability": "nonpayable",
      "type": "constructor"
    },
    {
      "anonymous": false,
      "inputs": [
        {
          "indexed": false,
          "internalType": "uint256",
          "name": "id",
          "type": "uint256"
        },
        {
          "indexed": false,
          "internalType": "string",
          "name": "message",
          "type": "string"
        },
        {
          "indexed": true,
          "internalType": "address",
          "name": "from",
          "type": "address"
        },
        {
          "indexed": false,
          "internalType": "uint256",
          "name": "timestamp",
          "type": "uint256"
        }
      ],
      "name": "NewWave",
      "type": "event"
    },
    {
      "inputs": [],
      "name": "getAllWaves",
      "outputs": [
        {
          "components": [
            {
              "internalType": "uint256",
              "name": "id",
              "type": "uint256"
            },
            {
              "internalType": "string",
              "name": "message",
              "type": "string"
            },
            {
              "internalType": "address",
              "name": "from",
              "type": "address"
            },
            {
              "internalType": "uint256",
              "name": "timestamp",
              "type": "uint256"
            }
          ],
          "internalType": "struct WavePortal.Wave[]",
          "name": "",
          "type": "tuple[]"
        }
      ],
      "stateMutability": "view",
      "type": "function"
    },
    {
      "inputs": [
        {
          "internalType": "address",
          "name": "recipient",
          "type": "address"
        }
      ],
      "name": "getAllWavesOfAddress",
      "outputs": [
        {
          "components": [
            {
              "internalType": "uint256",
              "name": "id",
              "type": "uint256"
            },
            {
              "internalType": "string",
              "name": "message",
              "type": "string"
            },
            {
              "internalType": "address",
              "name": "from",
              "type": "address"
            },
            {
              "internalType": "uint256",
              "name": "timestamp",
              "type": "uint256"
            }
          ],
          "internalType": "struct WavePortal.Wave[]",
          "name": "",
          "type": "tuple[]"
        }
      ],
      "stateMutability": "view",
      "type": "function"
    },
    {
      "inputs": [],
      "name": "getTotalWaves",
      "outputs": [
        {
          "internalType": "uint256",
          "name": "",
          "type": "uint256"
        }
      ],
      "stateMutability": "view",
      "type": "function"
    },
    {
      "inputs": [
        {
          "internalType": "address",
          "name": "",
          "type": "address"
        }
      ],
      "name": "lastWavedAt",
      "outputs": [
        {
          "internalType": "uint256",
          "name": "",
          "type": "uint256"
        }
      ],
      "stateMutability": "view",
      "type": "function"
    },
    {
      "inputs": [
        {
          "internalType": "string",
          "name": "_message",
          "type": "string"
        }
      ],
      "name": "wave",
      "outputs": [],
      "stateMutability": "nonpayable",
      "type": "function"
    },
    {
      "inputs": [
        {
          "internalType": "uint256",
          "name": "",
          "type": "uint256"
        }
      ],
      "name": "waveList",
      "outputs": [
        {
          "internalType": "uint256",
          "name": "id",
          "type": "uint256"
        },
        {
          "internalType": "string",
          "name": "message",
          "type": "string"
        },
        {
          "internalType": "address",
          "name": "from",
          "type": "address"
        },
        {
          "internalType": "uint256",
          "name": "timestamp",
          "type": "uint256"
        }
      ],
      "stateMutability": "view",
      "type": "function"
    }
  ],
  "bytecode": "0x60806040523480156200001157600080fd5b506200005d6040518060400160405280601681526020017f57656c636f6d6520746f205761766520506f7274616c000000000000000000008152506200006360201b620009531760201c565b620001f7565b62000103816040516024016200007a919062000170565b6040516020818303038152906040527f41304fac000000000000000000000000000000000000000000000000000000007bffffffffffffffffffffffffffffffffffffffffffffffffffffffff19166020820180517bffffffffffffffffffffffffffffffffffffffffffffffffffffffff83818316178352505050506200010660201b60201c565b50565b60008151905060006a636f6e736f6c652e6c6f679050602083016000808483855afa5050505050565b60006200013c8262000194565b6200014881856200019f565b93506200015a818560208601620001b0565b6200016581620001e6565b840191505092915050565b600060208201905081810360008301526200018c81846200012f565b905092915050565b600081519050919050565b600082825260208201905092915050565b60005b83811015620001d0578082015181840152602081019050620001b3565b83811115620001e0576000848401525b50505050565b6000601f19601f8301169050919050565b6113b480620002076000396000f3fe608060405234801561001057600080fd5b50600436106100625760003560e01c8063449d46c0146100675780638b9c3ecd146100835780639a2cdc08146100b6578063a42a4663146100d4578063bd43a90814610104578063e1a377f014610122575b600080fd5b610081600480360381019061007c9190610cd2565b610152565b005b61009d60048036038101906100989190610d13565b610509565b6040516100ad9493929190610fe6565b60405180910390f35b6100be6105f1565b6040516100cb9190610fcb565b60405180910390f35b6100ee60048036038101906100e99190610ca9565b610646565b6040516100fb9190610fcb565b60405180910390f35b61010c61065e565b6040516101199190610ef9565b60405180910390f35b61013c60048036038101906101379190610ca9565b6107b9565b6040516101499190610ef9565b60405180910390f35b42610708600360003373ffffffffffffffffffffffffffffffffffffffff1673ffffffffffffffffffffffffffffffffffffffff168152602001908152602001600020546101a0919061112c565b106101e0576040517f08c379a00000000000000000000000000000000000000000000000000000000081526004016101d790610fab565b60405180910390fd5b42600360003373ffffffffffffffffffffffffffffffffffffffff1673ffffffffffffffffffffffffffffffffffffffff1681526020019081526020016000208190555061022e60006109ec565b600061023a6000610a02565b9050600160405180608001604052808381526020018481526020013373ffffffffffffffffffffffffffffffffffffffff1681526020014281525090806001815401808255809150506001900390600052602060002090600402016000909190919091506000820151816000015560208201518160010190805190602001906102c4929190610b74565b5060408201518160020160006101000a81548173ffffffffffffffffffffffffffffffffffffffff021916908373ffffffffffffffffffffffffffffffffffffffff160217905550606082015181600301555050600260003373ffffffffffffffffffffffffffffffffffffffff1673ffffffffffffffffffffffffffffffffffffffff16815260200190815260200160002060405180608001604052808381526020018481526020013373ffffffffffffffffffffffffffffffffffffffff1681526020014281525090806001815401808255809150506001900390600052602060002090600402016000909190919091506000820151816000015560208201518160010190805190602001906103dd929190610b74565b5060408201518160020160006101000a81548173ffffffffffffffffffffffffffffffffffffffff021916908373ffffffffffffffffffffffffffffffffffffffff1602179055506060820151816003015550503373ffffffffffffffffffffffffffffffffffffffff167f31269b6870e86b6a1d43729b841b9c61af29b45a69331c0b0cd5f6ddf473542182844260405161047b93929190611032565b60405180910390a26105056040518060400160405280601081526020017f257320686173202573207761766573210000000000000000000000000000000081525033600260003373ffffffffffffffffffffffffffffffffffffffff1673ffffffffffffffffffffffffffffffffffffffff16815260200190815260200160002080549050610a10565b5050565b6001818154811061051957600080fd5b906000526020600020906004020160009150905080600001549080600101805461054290611200565b80601f016020809104026020016040519081016040528092919081815260200182805461056e90611200565b80156105bb5780601f10610590576101008083540402835291602001916105bb565b820191906000526020600020905b81548152906001019060200180831161059e57829003601f168201915b5050505050908060020160009054906101000a900473ffffffffffffffffffffffffffffffffffffffff16908060030154905084565b6000806105fe6000610a02565b905061063f6040518060400160405280601781526020017f5765206861766520256420746f74616c2077617665732100000000000000000081525082610aaf565b8091505090565b60036020528060005260406000206000915090505481565b60606001805480602002602001604051908101604052809291908181526020016000905b828210156107b05783829060005260206000209060040201604051806080016040529081600082015481526020016001820180546106bf90611200565b80601f01602080910402602001604051908101604052809291908181526020018280546106eb90611200565b80156107385780601f1061070d57610100808354040283529160200191610738565b820191906000526020600020905b81548152906001019060200180831161071b57829003601f168201915b505050505081526020016002820160009054906101000a900473ffffffffffffffffffffffffffffffffffffffff1673ffffffffffffffffffffffffffffffffffffffff1673ffffffffffffffffffffffffffffffffffffffff16815260200160038201548152505081526020019060010190610682565b50505050905090565b6060600260008373ffffffffffffffffffffffffffffffffffffffff1673ffffffffffffffffffffffffffffffffffffffff168152602001908152602001600020805480602002602001604051908101604052809291908181526020016000905b8282101561094857838290600052602060002090600402016040518060800160405290816000820154815260200160018201805461085790611200565b80601f016020809104026020016040519081016040528092919081815260200182805461088390611200565b80156108d05780601f106108a5576101008083540402835291602001916108d0565b820191906000526020600020905b8154815290600101906020018083116108b357829003601f168201915b505050505081526020016002820160009054906101000a900473ffffffffffffffffffffffffffffffffffffffff1673ffffffffffffffffffffffffffffffffffffffff1673ffffffffffffffffffffffffffffffffffffffff1681526020016003820154815250508152602001906001019061081a565b505050509050919050565b6109e9816040516024016109679190610f1b565b6040516020818303038152906040527f41304fac000000000000000000000000000000000000000000000000000000007bffffffffffffffffffffffffffffffffffffffffffffffffffffffff19166020820180517bffffffffffffffffffffffffffffffffffffffffffffffffffffffff8381831617835250505050610b4b565b50565b6001816000016000828254019250508190555050565b600081600001549050919050565b610aaa838383604051602401610a2893929190610f3d565b6040516020818303038152906040527f07c81217000000000000000000000000000000000000000000000000000000007bffffffffffffffffffffffffffffffffffffffffffffffffffffffff19166020820180517bffffffffffffffffffffffffffffffffffffffffffffffffffffffff8381831617835250505050610b4b565b505050565b610b478282604051602401610ac5929190610f7b565b6040516020818303038152906040527f9710a9d0000000000000000000000000000000000000000000000000000000007bffffffffffffffffffffffffffffffffffffffffffffffffffffffff19166020820180517bffffffffffffffffffffffffffffffffffffffffffffffffffffffff8381831617835250505050610b4b565b5050565b60008151905060006a636f6e736f6c652e6c6f679050602083016000808483855afa5050505050565b828054610b8090611200565b90600052602060002090601f016020900481019282610ba25760008555610be9565b82601f10610bbb57805160ff1916838001178555610be9565b82800160010185558215610be9579182015b82811115610be8578251825591602001919060010190610bcd565b5b509050610bf69190610bfa565b5090565b5b80821115610c13576000816000905550600101610bfb565b5090565b6000610c2a610c2584611095565b611070565b905082815260208101848484011115610c4257600080fd5b610c4d8482856111be565b509392505050565b600081359050610c6481611350565b92915050565b600082601f830112610c7b57600080fd5b8135610c8b848260208601610c17565b91505092915050565b600081359050610ca381611367565b92915050565b600060208284031215610cbb57600080fd5b6000610cc984828501610c55565b91505092915050565b600060208284031215610ce457600080fd5b600082013567ffffffffffffffff811115610cfe57600080fd5b610d0a84828501610c6a565b91505092915050565b600060208284031215610d2557600080fd5b6000610d3384828501610c94565b91505092915050565b6000610d488383610e78565b905092915050565b610d5981611182565b82525050565b610d6881611182565b82525050565b6000610d79826110d6565b610d8381856110f9565b935083602082028501610d95856110c6565b8060005b85811015610dd15784840389528151610db28582610d3c565b9450610dbd836110ec565b925060208a01995050600181019050610d99565b50829750879550505050505092915050565b6000610dee826110e1565b610df8818561110a565b9350610e088185602086016111cd565b610e11816112f0565b840191505092915050565b6000610e27826110e1565b610e31818561111b565b9350610e418185602086016111cd565b610e4a816112f0565b840191505092915050565b6000610e6260258361111b565b9150610e6d82611301565b604082019050919050565b6000608083016000830151610e906000860182610edb565b5060208301518482036020860152610ea88282610de3565b9150506040830151610ebd6040860182610d50565b506060830151610ed06060860182610edb565b508091505092915050565b610ee4816111b4565b82525050565b610ef3816111b4565b82525050565b60006020820190508181036000830152610f138184610d6e565b905092915050565b60006020820190508181036000830152610f358184610e1c565b905092915050565b60006060820190508181036000830152610f578186610e1c565b9050610f666020830185610d5f565b610f736040830184610eea565b949350505050565b60006040820190508181036000830152610f958185610e1c565b9050610fa46020830184610eea565b9392505050565b60006020820190508181036000830152610fc481610e55565b9050919050565b6000602082019050610fe06000830184610eea565b92915050565b6000608082019050610ffb6000830187610eea565b818103602083015261100d8186610e1c565b905061101c6040830185610d5f565b6110296060830184610eea565b95945050505050565b60006060820190506110476000830186610eea565b81810360208301526110598185610e1c565b90506110686040830184610eea565b949350505050565b600061107a61108b565b90506110868282611232565b919050565b6000604051905090565b600067ffffffffffffffff8211156110b0576110af6112c1565b5b6110b9826112f0565b9050602081019050919050565b6000819050602082019050919050565b600081519050919050565b600081519050919050565b6000602082019050919050565b600082825260208201905092915050565b600082825260208201905092915050565b600082825260208201905092915050565b6000611137826111b4565b9150611142836111b4565b9250827fffffffffffffffffffffffffffffffffffffffffffffffffffffffffffffffff0382111561117757611176611263565b5b828201905092915050565b600061118d82611194565b9050919050565b600073ffffffffffffffffffffffffffffffffffffffff82169050919050565b6000819050919050565b82818337600083830152505050565b60005b838110156111eb5780820151818401526020810190506111d0565b838111156111fa576000848401525b50505050565b6000600282049050600182168061121857607f821691505b6020821081141561122c5761122b611292565b5b50919050565b61123b826112f0565b810181811067ffffffffffffffff8211171561125a576112596112c1565b5b80604052505050565b7f4e487b7100000000000000000000000000000000000000000000000000000000600052601160045260246000fd5b7f4e487b7100000000000000000000000000000000000000000000000000000000600052602260045260246000fd5b7f4e487b7100000000000000000000000000000000000000000000000000000000600052604160045260246000fd5b6000601f19601f8301169050919050565b7f57616974203330206d696e7574657320746f2073656e6420616e6f746865722060008201527f776176652e000000000000000000000000000000000000000000000000000000602082015250565b61135981611182565b811461136457600080fd5b50565b611370816111b4565b811461137b57600080fd5b5056fea26469706673582212205e6a83f442423e3d6c04c8555638250a4c9dc8bbf8c852d08c054849d808513164736f6c63430008040033",
  "linkReferences": {},
  "deployedLinkReferences": {}
}